:10000000A9C00000C4C00000C2C00000C0C0000001
:10001000BEC00000BCC00000BAC00000B8C00000F4
:10002000B6C00000B4C00000DEC000001CC100006B
:10003000AEC00000ACC00000AAC00000A8C0000014
:10004000A6C00000A4C00000A2C00000A0C0000024
:100050009EC000009CC000009AC0000098C0000034
:1000600096C0000094C0000092C0000090C0000044
:100070008EC000008CC000008AC0000088C0000054
:1000800086C0000084C0000082C0000080C0000064
:100090007EC000007CC0000000010000CF00120004
:1000A000020000E1002200220000030115002100EF
:1000B00000F3000900030000180104010309041CF7
:1000C000011402030904320120000001C1260012BC
:1000D00001000200000020C01679040001010200A6
:1000E0000109022200010100C032090400000103DD
:1000F00000000009211101000122150007058303FA
:100100002000010631FF0974A1537508150026FF70
:1001100000952009758102C00403090414035900E5
:100120006F007500720020004E0061006D006500D8
:100130000000200359006F00750072002000550078
:10014000530042002000440065007600690063000F
:100150006500000011241FBECFEFD0E2DEBFCDBF8F
:1001600011E0A0E0B1E0E8E2F5E000E00BBF02C082
:1001700007900D92A030B107D9F711E0A0E0B1E0EF
:1001800001C01D92A330B107E1F702D0CBC138CF37
:1001900080E88093610010926100569A38985E98CA
:1001A0000BD020E23EE4309B02C05E9A01C05E9814
:1001B000C9010197F1F7F7CF81E88093D70080EA72
:1001C0008093D80086E189BD09B400FEFDCF80E9A7
:1001D0008093D8001092E000109200018CE0809390
:1001E000E200789408951F920F920FB60F92112497
:1001F0008F939F938091E1001092E100982F83FFED
:100200000FC01092E90081E08093EB001092EC00A7
:1002100082E28093ED0088E08093F000109200016C
:1002200092FF1AC0809100018823B1F080910101F2
:10023000882391F0815080930101882369F483E041
:100240008093E90002C01092F1008091E80085FDE2
:10025000FACF8AE38093E8009F918F910F900FBEB1
:100260000F901F9018951F920F920FB60F920BB61A
:100270000F9211242F933F934F935F936F937F932C
:100280008F939F93AF93BF93CF93DF93EF93FF939E
:100290001092E9008091E80083FF2CC14091F100A9
:1002A0003091F1008091F100A82FB0E02091F10091
:1002B000922F80E0A82BB92B8091F100682F70E07D
:1002C0002091F100922F80E0682B792B8091F10032
:1002D000C82FD0E02091F100922F80E0C82BD92BBD
:1002E00082EF8093E800363009F056C02FE930E005
:1002F000A90145505040F9013797859194918A178B
:100300009B07E1F4FA018591949186179707B1F460
:100310009A012E5F3F4FF901659174912E5F3F4F17
:10032000F9012491CE01CF3FD10519F010F08FEFE4
:1003300090E0422F821758F4482F09C0295F3F4FA1
:10034000495F5F4FF0E0203D3F07A9F6D3C05EEF65
:100350008091E800282F30E0C90185709070892BCA
:10036000B9F322FDCAC0342F413208F030E2232F06
:10037000CB0106C0FC010196E491E093F10021500D
:100380002223C1F7630F711D431B5093E8004423E0
:10039000F9F63032E9F2B1C0353061F48EEF809376
:1003A000E8008091E80080FFFCCF8A2F806880936E
:1003B000E300A3C0393031F5442309F09BC0A0937A
:1003C00000018EEF8093E80089EC90E021E020931B
:1003D000E900FC010196E491E093EB00EE2369F063
:1003E000AC014F5F5F4FFC0184918093EC00CA0128
:1003F0000196FA0134913093ED002F5F253039F7E3
:100400008EE14DC0383061F4403809F073C08091FE
:10041000E80080FFFCCF809100018093F1001BC0B9
:100420003323E9F48091E80080FFFCCF423811F0DB
:1004300080E00DC06093E9008091EB0090E025E042
:10044000969587952A95E1F781701092E90080933F
:10045000F1001092F1008EEF8093E8004EC0313031
:1004600019F0333009F046C04230F1F4AB2BE1F41F
:10047000262F2F77822F81508430B0F48EEF809317
:10048000E8002093E9003330A9F189E18093EB0083
:1004900081E090E002C0880F991F2A95E2F78093CF
:1004A000EA001092EA0029C0313021F5413A11F5F5
:1004B000672B01F54C2F5EEF8091E800282F30E08C
:1004C000C90185709070892BB9F322FD16C0942F55
:1004D000413208F090E2892F03C01092F100815060
:1004E0008823D9F7491B5093E800442329F7903219
:1004F00019F303C081E28093EB00FF91EF91DF914C
:10050000CF91BF91AF919F918F917F916F915F91AB
:100510004F913F912F910F900BBE0F900FBE0F90F8
:080520001F901895F894FFCF1D
:00000001FF
